{
  "contractName": "Lottery",
  "abi": [
    {
      "inputs": [
        {
          "internalType": "uint256",
          "name": "_ticketPrice",
          "type": "uint256"
        },
        {
          "internalType": "uint256",
          "name": "_ticketCount",
          "type": "uint256"
        }
      ],
      "stateMutability": "nonpayable",
      "type": "constructor"
    },
    {
      "anonymous": false,
      "inputs": [
        {
          "indexed": true,
          "internalType": "address",
          "name": "player",
          "type": "address"
        },
        {
          "indexed": false,
          "internalType": "uint256",
          "name": "ticketCount",
          "type": "uint256"
        }
      ],
      "name": "NewPlayer",
      "type": "event"
    },
    {
      "inputs": [],
      "name": "owner",
      "outputs": [
        {
          "internalType": "address",
          "name": "",
          "type": "address"
        }
      ],
      "stateMutability": "view",
      "type": "function",
      "constant": true
    },
    {
      "inputs": [
        {
          "internalType": "uint256",
          "name": "",
          "type": "uint256"
        }
      ],
      "name": "players",
      "outputs": [
        {
          "internalType": "address",
          "name": "",
          "type": "address"
        }
      ],
      "stateMutability": "view",
      "type": "function",
      "constant": true
    },
    {
      "inputs": [],
      "name": "ticketCount",
      "outputs": [
        {
          "internalType": "uint256",
          "name": "",
          "type": "uint256"
        }
      ],
      "stateMutability": "view",
      "type": "function",
      "constant": true
    },
    {
      "inputs": [],
      "name": "ticketPrice",
      "outputs": [
        {
          "internalType": "uint256",
          "name": "",
          "type": "uint256"
        }
      ],
      "stateMutability": "view",
      "type": "function",
      "constant": true
    },
    {
      "inputs": [],
      "name": "winner",
      "outputs": [
        {
          "internalType": "address",
          "name": "",
          "type": "address"
        }
      ],
      "stateMutability": "view",
      "type": "function",
      "constant": true
    },
    {
      "inputs": [],
      "name": "buyTicket",
      "outputs": [],
      "stateMutability": "payable",
      "type": "function",
      "payable": true
    },
    {
      "inputs": [],
      "name": "getPlayers",
      "outputs": [
        {
          "internalType": "address[]",
          "name": "",
          "type": "address[]"
        }
      ],
      "stateMutability": "view",
      "type": "function",
      "constant": true
    }
  ],
  "bytecode": "0x608060405234801561001057600080fd5b50604051610bb9380380610bb9833981810160405281019061003291906100c2565b336000806101000a81548173ffffffffffffffffffffffffffffffffffffffff021916908373ffffffffffffffffffffffffffffffffffffffff16021790555081600281905550806003819055505050610102565b600080fd5b6000819050919050565b61009f8161008c565b81146100aa57600080fd5b50565b6000815190506100bc81610096565b92915050565b600080604083850312156100d9576100d8610087565b5b60006100e7858286016100ad565b92505060206100f8858286016100ad565b9150509250929050565b610aa8806101116000396000f3fe6080604052600436106100705760003560e01c8063cfbd900f1161004e578063cfbd900f146100f6578063dfbf53ae14610121578063edca914c1461014c578063f71d96cb1461015657610070565b80631209b1f6146100755780638b5b9ccc146100a05780638da5cb5b146100cb575b600080fd5b34801561008157600080fd5b5061008a610193565b604051610097919061060a565b60405180910390f35b3480156100ac57600080fd5b506100b5610199565b6040516100c29190610715565b60405180910390f35b3480156100d757600080fd5b506100e0610227565b6040516100ed9190610746565b60405180910390f35b34801561010257600080fd5b5061010b61024b565b604051610118919061060a565b60405180910390f35b34801561012d57600080fd5b50610136610251565b6040516101439190610746565b60405180910390f35b610154610277565b005b34801561016257600080fd5b5061017d60048036038101906101789190610792565b61050b565b60405161018a9190610746565b60405180910390f35b60025481565b6060600180548060200260200160405190810160405280929190818152602001828054801561021d57602002820191906000526020600020905b8160009054906101000a900473ffffffffffffffffffffffffffffffffffffffff1673ffffffffffffffffffffffffffffffffffffffff16815260200190600101908083116101d3575b5050505050905090565b60008054906101000a900473ffffffffffffffffffffffffffffffffffffffff1681565b60035481565b600460009054906101000a900473ffffffffffffffffffffffffffffffffffffffff1681565b60025434146102bb576040517f08c379a00000000000000000000000000000000000000000000000000000000081526004016102b29061081c565b60405180910390fd5b6001339080600181540180825580915050600190039060005260206000200160009091909190916101000a81548173ffffffffffffffffffffffffffffffffffffffff021916908373ffffffffffffffffffffffffffffffffffffffff160217905550600354600180549050036104b6576000600354424860016040516020016103479392919061097b565b6040516020818303038152906040528051906020012060001c61036a91906109e3565b9050600181815481106103805761037f610a14565b5b9060005260206000200160009054906101000a900473ffffffffffffffffffffffffffffffffffffffff16600460006101000a81548173ffffffffffffffffffffffffffffffffffffffff021916908373ffffffffffffffffffffffffffffffffffffffff160217905550600460009054906101000a900473ffffffffffffffffffffffffffffffffffffffff1673ffffffffffffffffffffffffffffffffffffffff166108fc479081150290604051600060405180830381858888f19350505050158015610453573d6000803e3d6000fd5b50600067ffffffffffffffff81111561046f5761046e610a43565b5b60405190808252806020026020018201604052801561049d5781602001602082028036833780820191505090505b50600190805190602001906104b392919061054a565b50505b3373ffffffffffffffffffffffffffffffffffffffff167f6b8fe0f067804a78a12efa88b8428446c8d8a703d5604dffc63ac27fcbdcfd0d600180549050604051610501919061060a565b60405180910390a2565b6001818154811061051b57600080fd5b906000526020600020016000915054906101000a900473ffffffffffffffffffffffffffffffffffffffff1681565b8280548282559060005260206000209081019282156105c3579160200282015b828111156105c25782518260006101000a81548173ffffffffffffffffffffffffffffffffffffffff021916908373ffffffffffffffffffffffffffffffffffffffff1602179055509160200191906001019061056a565b5b5090506105d091906105d4565b5090565b5b808211156105ed5760008160009055506001016105d5565b5090565b6000819050919050565b610604816105f1565b82525050565b600060208201905061061f60008301846105fb565b92915050565b600081519050919050565b600082825260208201905092915050565b6000819050602082019050919050565b600073ffffffffffffffffffffffffffffffffffffffff82169050919050565b600061067c82610651565b9050919050565b61068c81610671565b82525050565b600061069e8383610683565b60208301905092915050565b6000602082019050919050565b60006106c282610625565b6106cc8185610630565b93506106d783610641565b8060005b838110156107085781516106ef8882610692565b97506106fa836106aa565b9250506001810190506106db565b5085935050505092915050565b6000602082019050818103600083015261072f81846106b7565b905092915050565b61074081610671565b82525050565b600060208201905061075b6000830184610737565b92915050565b600080fd5b61076f816105f1565b811461077a57600080fd5b50565b60008135905061078c81610766565b92915050565b6000602082840312156107a8576107a7610761565b5b60006107b68482850161077d565b91505092915050565b600082825260208201905092915050565b7f496e636f7272656374207469636b65742070726963652e000000000000000000600082015250565b60006108066017836107bf565b9150610811826107d0565b602082019050919050565b60006020820190508181036000830152610835816107f9565b9050919050565b6000819050919050565b610857610852826105f1565b61083c565b82525050565b600081549050919050565b600081905092915050565b60008190508160005260206000209050919050565b61089181610671565b82525050565b60006108a38383610888565b60208301905092915050565b60008160001c9050919050565b600073ffffffffffffffffffffffffffffffffffffffff82169050919050565b60006108ef6108ea836108af565b6108bc565b9050919050565b600061090282546108dc565b9050919050565b6000600182019050919050565b60006109218261085d565b61092b8185610868565b935061093683610873565b8060005b8381101561096e5761094b826108f6565b6109558882610897565b975061096083610909565b92505060018101905061093a565b5085935050505092915050565b60006109878286610846565b6020820191506109978285610846565b6020820191506109a78284610916565b9150819050949350505050565b7f4e487b7100000000000000000000000000000000000000000000000000000000600052601260045260246000fd5b60006109ee826105f1565b91506109f9836105f1565b925082610a0957610a086109b4565b5b828206905092915050565b7f4e487b7100000000000000000000000000000000000000000000000000000000600052603260045260246000fd5b7f4e487b7100000000000000000000000000000000000000000000000000000000600052604160045260246000fdfea26469706673582212207076ea4f75534db8ff9e4e6115fa23c1ce688754ee331f04ab3af6f26515076764736f6c63430008130033",
  "immutableReferences": {},
  "source": "// SPDX-License-Identifier: MIT\npragma solidity ^0.8.18;\n\ncontract Lottery {\n    address public owner;\n    address[] public players;\n    uint256 public ticketPrice;\n    uint256 public ticketCount;\n    address public winner;\n\n    event NewPlayer(address indexed player, uint256 ticketCount);\n\n    constructor(uint256 _ticketPrice, uint256 _ticketCount) {\n        owner = msg.sender;\n        ticketPrice = _ticketPrice;\n        ticketCount = _ticketCount;\n    }\n\n    function buyTicket() public payable {\n        require(msg.value == ticketPrice, \"Incorrect ticket price.\");\n        \n\n        players.push(msg.sender);\n\n        if (players.length == ticketCount) {\n           \n            uint256 winnerIndex = uint256(keccak256(abi.encodePacked(block.timestamp, block.basefee, players))) % ticketCount;\n\n            winner = players[winnerIndex];\n\n            payable(winner).transfer(address(this).balance);\n            players = new address[](0);\n        }\n\n        emit NewPlayer(msg.sender, players.length);\n    }\n\n    function getPlayers() public view returns (address[] memory) {\n        return players;\n    }\n\n\n}\n",
  "sourcePath": "/truffle/contracts/Lottery.sol",
  "compiler": {
    "name": "solc",
    "version": "0.8.19+commit.7dd6d404.Emscripten.clang"
  },
  "schemaVersion": "3.4.13",
  "updatedAt": "2023-04-12T21:12:19.663Z",
  "networkType": "ethereum",
  "devdoc": {
    "kind": "dev",
    "methods": {},
    "version": 1
  },
  "userdoc": {
    "kind": "user",
    "methods": {},
    "version": 1
  }
}